{
  "contractName": "Test",
  "abi": [
    {
      "anonymous": false,
      "inputs": [
        {
          "indexed": true,
          "internalType": "address",
          "name": "sender",
          "type": "address"
        },
        {
          "indexed": false,
          "internalType": "uint256",
          "name": "amount",
          "type": "uint256"
        }
      ],
      "name": "Deposit",
      "type": "event"
    },
    {
      "anonymous": false,
      "inputs": [
        {
          "indexed": true,
          "internalType": "address",
          "name": "recipient",
          "type": "address"
        },
        {
          "indexed": false,
          "internalType": "uint256",
          "name": "amount",
          "type": "uint256"
        }
      ],
      "name": "Withdrawal",
      "type": "event"
    },
    {
      "inputs": [
        {
          "internalType": "address",
          "name": "",
          "type": "address"
        }
      ],
      "name": "balances",
      "outputs": [
        {
          "internalType": "uint256",
          "name": "",
          "type": "uint256"
        }
      ],
      "stateMutability": "view",
      "type": "function",
      "constant": true
    },
    {
      "inputs": [],
      "name": "deposit",
      "outputs": [],
      "stateMutability": "payable",
      "type": "function",
      "payable": true
    },
    {
      "inputs": [
        {
          "internalType": "uint256",
          "name": "amount",
          "type": "uint256"
        }
      ],
      "name": "withdraw",
      "outputs": [],
      "stateMutability": "nonpayable",
      "type": "function"
    },
    {
      "inputs": [
        {
          "internalType": "address",
          "name": "addr",
          "type": "address"
        }
      ],
      "name": "getBalance",
      "outputs": [
        {
          "internalType": "uint256",
          "name": "",
          "type": "uint256"
        }
      ],
      "stateMutability": "view",
      "type": "function",
      "constant": true
    }
  ],
  "bytecode": "0x608060405234801561001057600080fd5b50610360806100206000396000f3fe60806040526004361061003f5760003560e01c806327e235e3146100445780632e1a7d4d1461007a578063d0e30db01461009c578063f8b2cb4f146100a4575b600080fd5b34801561005057600080fd5b5061006461005f36600461023f565b6100c4565b60405161007191906102dc565b60405180910390f35b34801561008657600080fd5b5061009a61009536600461026d565b6100d6565b005b61009a6101a4565b3480156100b057600080fd5b506100646100bf36600461023f565b610224565b60006020819052908152604090205481565b3360009081526020819052604090205481111561010e5760405162461bcd60e51b815260040161010590610285565b60405180910390fd5b336000908152602081905260408120805483929061012d9084906102fd565b9091555050604051339082156108fc029083906000818181858888f1935050505015801561015f573d6000803e3d6000fd5b50336001600160a01b03167f7fcf532c15f0a6db0bd6d0e038bea71d30d808c7d98cb3bf7268a95bf5081b658260405161019991906102dc565b60405180910390a250565b600034116101c45760405162461bcd60e51b8152600401610105906102b4565b33600090815260208190526040812080543492906101e39084906102e5565b909155505060405133907fe1fffcc4923d04b559f4d29a8bfc6cda04eb5b0d3c460751c2402c5c5cc9109c9061021a9034906102dc565b60405180910390a2565b6001600160a01b031660009081526020819052604090205490565b600060208284031215610250578081fd5b81356001600160a01b0381168114610266578182fd5b9392505050565b60006020828403121561027e578081fd5b5035919050565b60208082526015908201527424b739bab33334b1b4b2b73a103130b630b731b29760591b604082015260600190565b6020808252600e908201526d2737903b30b63ab29039b2b73a1760911b604082015260600190565b90815260200190565b600082198211156102f8576102f8610314565b500190565b60008282101561030f5761030f610314565b500390565b634e487b7160e01b600052601160045260246000fdfea26469706673582212209e18cda9570f02178e196bb5f2aa50c8f0260c71152693392e2bab2dd8b5dd4964736f6c63430008000033",
  "immutableReferences": {},
  "source": "// SPDX-License-Identifier: UNLICENSED\npragma solidity ^0.8.0;\n\ncontract Test {\n    mapping(address => uint256) public balances;\n\n    event Deposit(address indexed sender, uint256 amount);\n    event Withdrawal(address indexed recipient, uint256 amount);\n\n    function deposit() public payable {\n        require(msg.value > 0, \"No value sent.\");\n        balances[msg.sender] += msg.value;\n        emit Deposit(msg.sender, msg.value);\n    }\n\n    function withdraw(uint256 amount) public {\n        require(balances[msg.sender] >= amount, \"Insufficient balance.\");\n        balances[msg.sender] -= amount;\n        payable(msg.sender).transfer(amount);\n        emit Withdrawal(msg.sender, amount);\n    }\n\n    function getBalance(address addr) public view returns (uint256) {\n        return balances[addr];\n    }\n}\n",
  "sourcePath": "/Users/maanomulaudzi/Desktop/test/contracts/test.sol",
  "compiler": {
    "name": "solc",
    "version": "0.8.0+commit.c7dfd78e.Emscripten.clang"
  },
  "schemaVersion": "3.4.13",
  "updatedAt": "2023-04-28T16:54:23.726Z",
  "networkType": "ethereum",
  "devdoc": {
    "kind": "dev",
    "methods": {},
    "version": 1
  },
  "userdoc": {
    "kind": "user",
    "methods": {},
    "version": 1
  }
}